{
  "_format": "hh-sol-artifact-1",
  "contractName": "Transactions",
  "sourceName": "contracts/Transacions.sol",
  "abi": [
    {
      "anonymous": false,
      "inputs": [
        {
          "indexed": false,
          "internalType": "address",
          "name": "from",
          "type": "address"
        },
        {
          "indexed": false,
          "internalType": "address",
          "name": "receiver",
          "type": "address"
        },
        {
          "indexed": false,
          "internalType": "uint256",
          "name": "amount",
          "type": "uint256"
        },
        {
          "indexed": false,
          "internalType": "string",
          "name": "message",
          "type": "string"
        },
        {
          "indexed": false,
          "internalType": "uint256",
          "name": "timestamp",
          "type": "uint256"
        },
        {
          "indexed": false,
          "internalType": "string",
          "name": "keyword",
          "type": "string"
        },
        {
          "indexed": false,
          "internalType": "string",
          "name": "vote",
          "type": "string"
        }
      ],
      "name": "Transfer",
      "type": "event"
    },
    {
      "inputs": [
        {
          "internalType": "address payable",
          "name": "receiver",
          "type": "address"
        },
        {
          "internalType": "uint256",
          "name": "amount",
          "type": "uint256"
        },
        {
          "internalType": "string",
          "name": "message",
          "type": "string"
        },
        {
          "internalType": "string",
          "name": "keyword",
          "type": "string"
        },
        {
          "internalType": "string",
          "name": "vote",
          "type": "string"
        }
      ],
      "name": "addToChain",
      "outputs": [],
      "stateMutability": "nonpayable",
      "type": "function"
    },
    {
      "inputs": [],
      "name": "getAllTransactions",
      "outputs": [
        {
          "components": [
            {
              "internalType": "address",
              "name": "sender",
              "type": "address"
            },
            {
              "internalType": "address",
              "name": "receiver",
              "type": "address"
            },
            {
              "internalType": "uint256",
              "name": "amount",
              "type": "uint256"
            },
            {
              "internalType": "string",
              "name": "message",
              "type": "string"
            },
            {
              "internalType": "uint256",
              "name": "timestamp",
              "type": "uint256"
            },
            {
              "internalType": "string",
              "name": "keyword",
              "type": "string"
            },
            {
              "internalType": "string",
              "name": "vote",
              "type": "string"
            }
          ],
          "internalType": "struct Transactions.TransferStruct[]",
          "name": "",
          "type": "tuple[]"
        }
      ],
      "stateMutability": "view",
      "type": "function"
    },
    {
      "inputs": [],
      "name": "getTransactionCount",
      "outputs": [
        {
          "internalType": "uint256",
          "name": "",
          "type": "uint256"
        }
      ],
      "stateMutability": "view",
      "type": "function"
    },
    {
      "inputs": [],
      "name": "getVotes",
      "outputs": [
        {
          "internalType": "uint256[2]",
          "name": "",
          "type": "uint256[2]"
        }
      ],
      "stateMutability": "view",
      "type": "function"
    }
  ],
  "bytecode": "0x608060405234801561001057600080fd5b50610ecc806100206000396000f3fe608060405234801561001057600080fd5b506004361061004c5760003560e01c80630dc960151461005157806327506f531461006f5780632e7700f01461008d57806373f1f15d146100ab575b600080fd5b6100596100c7565b6040516100669190610b52565b60405180910390f35b6100776100ed565b6040516100849190610b30565b60405180910390f35b6100956103c2565b6040516100a29190610b6d565b60405180910390f35b6100c560048036038101906100c0919061078e565b6103cb565b005b6100cf610637565b60405180604001604052806001548152602001600254815250905090565b60606003805480602002602001604051908101604052809291908181526020016000905b828210156103b957838290600052602060002090600702016040518060e00160405290816000820160009054906101000a900473ffffffffffffffffffffffffffffffffffffffff1673ffffffffffffffffffffffffffffffffffffffff1673ffffffffffffffffffffffffffffffffffffffff1681526020016001820160009054906101000a900473ffffffffffffffffffffffffffffffffffffffff1673ffffffffffffffffffffffffffffffffffffffff1673ffffffffffffffffffffffffffffffffffffffff168152602001600282015481526020016003820180546101fa90610d98565b80601f016020809104026020016040519081016040528092919081815260200182805461022690610d98565b80156102735780601f1061024857610100808354040283529160200191610273565b820191906000526020600020905b81548152906001019060200180831161025657829003601f168201915b505050505081526020016004820154815260200160058201805461029690610d98565b80601f01602080910402602001604051908101604052809291908181526020018280546102c290610d98565b801561030f5780601f106102e45761010080835404028352916020019161030f565b820191906000526020600020905b8154815290600101906020018083116102f257829003601f168201915b5050505050815260200160068201805461032890610d98565b80601f016020809104026020016040519081016040528092919081815260200182805461035490610d98565b80156103a15780601f10610376576101008083540402835291602001916103a1565b820191906000526020600020905b81548152906001019060200180831161038457829003601f168201915b50505050508152505081526020019060010190610111565b50505050905090565b60008054905090565b6040518060400160405280600181526020017f410000000000000000000000000000000000000000000000000000000000000081525080519060200120818051906020012014156104345760018060008282546104289190610c7c565b9250508190555061044f565b6001600260008282546104479190610c7c565b925050819055505b60016000808282546104619190610c7c565b9250508190555060036040518060e001604052803373ffffffffffffffffffffffffffffffffffffffff1681526020018773ffffffffffffffffffffffffffffffffffffffff16815260200186815260200185815260200142815260200184815260200183815250908060018154018082558091505060019003906000526020600020906007020160009091909190915060008201518160000160006101000a81548173ffffffffffffffffffffffffffffffffffffffff021916908373ffffffffffffffffffffffffffffffffffffffff16021790555060208201518160010160006101000a81548173ffffffffffffffffffffffffffffffffffffffff021916908373ffffffffffffffffffffffffffffffffffffffff1602179055506040820151816002015560608201518160030190805190602001906105a6929190610659565b506080820151816004015560a08201518160050190805190602001906105cd929190610659565b5060c08201518160060190805190602001906105ea929190610659565b5050507f21ec5b3f3e6c597e1a0d1650e5545618667a89bf7d7341cc53e38673d3dede32338686864287876040516106289796959493929190610aac565b60405180910390a15050505050565b6040518060400160405280600290602082028036833780820191505090505090565b82805461066590610d98565b90600052602060002090601f01602090048101928261068757600085556106ce565b82601f106106a057805160ff19168380011785556106ce565b828001600101855582156106ce579182015b828111156106cd5782518255916020019190600101906106b2565b5b5090506106db91906106df565b5090565b5b808211156106f85760008160009055506001016106e0565b5090565b600061070f61070a84610bb9565b610b88565b90508281526020810184848401111561072757600080fd5b610732848285610d56565b509392505050565b60008135905061074981610e68565b92915050565b600082601f83011261076057600080fd5b81356107708482602086016106fc565b91505092915050565b60008135905061078881610e7f565b92915050565b600080600080600060a086880312156107a657600080fd5b60006107b48882890161073a565b95505060206107c588828901610779565b945050604086013567ffffffffffffffff8111156107e257600080fd5b6107ee8882890161074f565b935050606086013567ffffffffffffffff81111561080b57600080fd5b6108178882890161074f565b925050608086013567ffffffffffffffff81111561083457600080fd5b6108408882890161074f565b9150509295509295909350565b600061085983836109e4565b905092915050565b600061086d8383610a8e565b60208301905092915050565b61088281610d20565b82525050565b61089181610cd2565b82525050565b6108a081610cd2565b82525050565b60006108b182610c03565b6108bb8185610c3e565b9350836020820285016108cd85610be9565b8060005b8581101561090957848403895281516108ea858261084d565b94506108f583610c24565b925060208a019950506001810190506108d1565b50829750879550505050505092915050565b61092481610c0e565b61092e8184610c4f565b925061093982610bf9565b8060005b8381101561096a5781516109518782610861565b965061095c83610c31565b92505060018101905061093d565b505050505050565b600061097d82610c19565b6109878185610c5a565b9350610997818560208601610d65565b6109a081610e57565b840191505092915050565b60006109b682610c19565b6109c08185610c6b565b93506109d0818560208601610d65565b6109d981610e57565b840191505092915050565b600060e0830160008301516109fc6000860182610888565b506020830151610a0f6020860182610888565b506040830151610a226040860182610a8e565b5060608301518482036060860152610a3a8282610972565b9150506080830151610a4f6080860182610a8e565b5060a083015184820360a0860152610a678282610972565b91505060c083015184820360c0860152610a818282610972565b9150508091505092915050565b610a9781610d16565b82525050565b610aa681610d16565b82525050565b600060e082019050610ac1600083018a610897565b610ace6020830189610879565b610adb6040830188610a9d565b8181036060830152610aed81876109ab565b9050610afc6080830186610a9d565b81810360a0830152610b0e81856109ab565b905081810360c0830152610b2281846109ab565b905098975050505050505050565b60006020820190508181036000830152610b4a81846108a6565b905092915050565b6000604082019050610b67600083018461091b565b92915050565b6000602082019050610b826000830184610a9d565b92915050565b6000604051905081810181811067ffffffffffffffff82111715610baf57610bae610e28565b5b8060405250919050565b600067ffffffffffffffff821115610bd457610bd3610e28565b5b601f19601f8301169050602081019050919050565b6000819050602082019050919050565b6000819050919050565b600081519050919050565b600060029050919050565b600081519050919050565b6000602082019050919050565b6000602082019050919050565b600082825260208201905092915050565b600081905092915050565b600082825260208201905092915050565b600082825260208201905092915050565b6000610c8782610d16565b9150610c9283610d16565b9250827fffffffffffffffffffffffffffffffffffffffffffffffffffffffffffffffff03821115610cc757610cc6610dca565b5b828201905092915050565b6000610cdd82610cf6565b9050919050565b6000610cef82610cf6565b9050919050565b600073ffffffffffffffffffffffffffffffffffffffff82169050919050565b6000819050919050565b6000610d2b82610d32565b9050919050565b6000610d3d82610d44565b9050919050565b6000610d4f82610cf6565b9050919050565b82818337600083830152505050565b60005b83811015610d83578082015181840152602081019050610d68565b83811115610d92576000848401525b50505050565b60006002820490506001821680610db057607f821691505b60208210811415610dc457610dc3610df9565b5b50919050565b7f4e487b7100000000000000000000000000000000000000000000000000000000600052601160045260246000fd5b7f4e487b7100000000000000000000000000000000000000000000000000000000600052602260045260246000fd5b7f4e487b7100000000000000000000000000000000000000000000000000000000600052604160045260246000fd5b6000601f19601f8301169050919050565b610e7181610ce4565b8114610e7c57600080fd5b50565b610e8881610d16565b8114610e9357600080fd5b5056fea2646970667358221220e623796c7d7c9241dc707c946558f9fc3f0e0e4133d9d352599db1f890bf036a64736f6c63430008000033",
  "linkReferences": {},
  "deployedLinkReferences": {}
}