{
  "_format": "hh-sol-artifact-1",
  "contractName": "Transactions",
  "sourceName": "contracts/Transacions.sol",
  "abi": [
    {
      "anonymous": false,
      "inputs": [
        {
          "indexed": false,
          "internalType": "address",
          "name": "from",
          "type": "address"
        },
        {
          "indexed": false,
          "internalType": "address",
          "name": "receiver",
          "type": "address"
        },
        {
          "indexed": false,
          "internalType": "uint256",
          "name": "amount",
          "type": "uint256"
        },
        {
          "indexed": false,
          "internalType": "string",
          "name": "message",
          "type": "string"
        },
        {
          "indexed": false,
          "internalType": "uint256",
          "name": "timestamp",
          "type": "uint256"
        },
        {
          "indexed": false,
          "internalType": "string",
          "name": "keyword",
          "type": "string"
        },
        {
          "indexed": false,
          "internalType": "string",
          "name": "vote",
          "type": "string"
        }
      ],
      "name": "Transfer",
      "type": "event"
    },
    {
      "inputs": [
        {
          "internalType": "address payable",
          "name": "receiver",
          "type": "address"
        },
        {
          "internalType": "uint256",
          "name": "amount",
          "type": "uint256"
        },
        {
          "internalType": "string",
          "name": "message",
          "type": "string"
        },
        {
          "internalType": "string",
          "name": "keyword",
          "type": "string"
        },
        {
          "internalType": "string",
          "name": "vote",
          "type": "string"
        }
      ],
      "name": "addToChain",
      "outputs": [],
      "stateMutability": "nonpayable",
      "type": "function"
    },
    {
      "inputs": [],
      "name": "getAllTransactions",
      "outputs": [
        {
          "components": [
            {
              "internalType": "address",
              "name": "sender",
              "type": "address"
            },
            {
              "internalType": "address",
              "name": "receiver",
              "type": "address"
            },
            {
              "internalType": "uint256",
              "name": "amount",
              "type": "uint256"
            },
            {
              "internalType": "string",
              "name": "message",
              "type": "string"
            },
            {
              "internalType": "uint256",
              "name": "timestamp",
              "type": "uint256"
            },
            {
              "internalType": "string",
              "name": "keyword",
              "type": "string"
            },
            {
              "internalType": "string",
              "name": "vote",
              "type": "string"
            }
          ],
          "internalType": "struct Transactions.TransferStruct[]",
          "name": "",
          "type": "tuple[]"
        }
      ],
      "stateMutability": "view",
      "type": "function"
    },
    {
      "inputs": [],
      "name": "getTransactionCount",
      "outputs": [
        {
          "internalType": "uint256",
          "name": "",
          "type": "uint256"
        }
      ],
      "stateMutability": "view",
      "type": "function"
    }
  ],
  "bytecode": "0x608060405234801561001057600080fd5b50610da4806100206000396000f3fe608060405234801561001057600080fd5b50600436106100415760003560e01c806327506f53146100465780632e7700f01461006457806373f1f15d14610082575b600080fd5b61004e61009e565b60405161005b9190610a50565b60405180910390f35b61006c610373565b6040516100799190610a72565b60405180910390f35b61009c6004803603810190610097919061071d565b61037c565b005b60606003805480602002602001604051908101604052809291908181526020016000905b8282101561036a57838290600052602060002090600702016040518060e00160405290816000820160009054906101000a900473ffffffffffffffffffffffffffffffffffffffff1673ffffffffffffffffffffffffffffffffffffffff1673ffffffffffffffffffffffffffffffffffffffff1681526020016001820160009054906101000a900473ffffffffffffffffffffffffffffffffffffffff1673ffffffffffffffffffffffffffffffffffffffff1673ffffffffffffffffffffffffffffffffffffffff168152602001600282015481526020016003820180546101ab90610c70565b80601f01602080910402602001604051908101604052809291908181526020018280546101d790610c70565b80156102245780601f106101f957610100808354040283529160200191610224565b820191906000526020600020905b81548152906001019060200180831161020757829003601f168201915b505050505081526020016004820154815260200160058201805461024790610c70565b80601f016020809104026020016040519081016040528092919081815260200182805461027390610c70565b80156102c05780601f10610295576101008083540402835291602001916102c0565b820191906000526020600020905b8154815290600101906020018083116102a357829003601f168201915b505050505081526020016006820180546102d990610c70565b80601f016020809104026020016040519081016040528092919081815260200182805461030590610c70565b80156103525780601f1061032757610100808354040283529160200191610352565b820191906000526020600020905b81548152906001019060200180831161033557829003601f168201915b505050505081525050815260200190600101906100c2565b50505050905090565b60008054905090565b6040518060400160405280600181526020017f410000000000000000000000000000000000000000000000000000000000000081525080519060200120818051906020012014156103e55760018060008282546103d99190610b54565b92505081905550610400565b6001600260008282546103f89190610b54565b925050819055505b60016000808282546104129190610b54565b9250508190555060036040518060e001604052803373ffffffffffffffffffffffffffffffffffffffff1681526020018773ffffffffffffffffffffffffffffffffffffffff16815260200186815260200185815260200142815260200184815260200183815250908060018154018082558091505060019003906000526020600020906007020160009091909190915060008201518160000160006101000a81548173ffffffffffffffffffffffffffffffffffffffff021916908373ffffffffffffffffffffffffffffffffffffffff16021790555060208201518160010160006101000a81548173ffffffffffffffffffffffffffffffffffffffff021916908373ffffffffffffffffffffffffffffffffffffffff1602179055506040820151816002015560608201518160030190805190602001906105579291906105e8565b506080820151816004015560a082015181600501908051906020019061057e9291906105e8565b5060c082015181600601908051906020019061059b9291906105e8565b5050507f21ec5b3f3e6c597e1a0d1650e5545618667a89bf7d7341cc53e38673d3dede32338686864287876040516105d997969594939291906109cc565b60405180910390a15050505050565b8280546105f490610c70565b90600052602060002090601f016020900481019282610616576000855561065d565b82601f1061062f57805160ff191683800117855561065d565b8280016001018555821561065d579182015b8281111561065c578251825591602001919060010190610641565b5b50905061066a919061066e565b5090565b5b8082111561068757600081600090555060010161066f565b5090565b600061069e61069984610abe565b610a8d565b9050828152602081018484840111156106b657600080fd5b6106c1848285610c2e565b509392505050565b6000813590506106d881610d40565b92915050565b600082601f8301126106ef57600080fd5b81356106ff84826020860161068b565b91505092915050565b60008135905061071781610d57565b92915050565b600080600080600060a0868803121561073557600080fd5b6000610743888289016106c9565b955050602061075488828901610708565b945050604086013567ffffffffffffffff81111561077157600080fd5b61077d888289016106de565b935050606086013567ffffffffffffffff81111561079a57600080fd5b6107a6888289016106de565b925050608086013567ffffffffffffffff8111156107c357600080fd5b6107cf888289016106de565b9150509295509295909350565b60006107e88383610904565b905092915050565b6107f981610bf8565b82525050565b61080881610baa565b82525050565b61081781610baa565b82525050565b600061082882610afe565b6108328185610b21565b93508360208202850161084485610aee565b8060005b85811015610880578484038952815161086185826107dc565b945061086c83610b14565b925060208a01995050600181019050610848565b50829750879550505050505092915050565b600061089d82610b09565b6108a78185610b32565b93506108b7818560208601610c3d565b6108c081610d2f565b840191505092915050565b60006108d682610b09565b6108e08185610b43565b93506108f0818560208601610c3d565b6108f981610d2f565b840191505092915050565b600060e08301600083015161091c60008601826107ff565b50602083015161092f60208601826107ff565b50604083015161094260408601826109ae565b506060830151848203606086015261095a8282610892565b915050608083015161096f60808601826109ae565b5060a083015184820360a08601526109878282610892565b91505060c083015184820360c08601526109a18282610892565b9150508091505092915050565b6109b781610bee565b82525050565b6109c681610bee565b82525050565b600060e0820190506109e1600083018a61080e565b6109ee60208301896107f0565b6109fb60408301886109bd565b8181036060830152610a0d81876108cb565b9050610a1c60808301866109bd565b81810360a0830152610a2e81856108cb565b905081810360c0830152610a4281846108cb565b905098975050505050505050565b60006020820190508181036000830152610a6a818461081d565b905092915050565b6000602082019050610a8760008301846109bd565b92915050565b6000604051905081810181811067ffffffffffffffff82111715610ab457610ab3610d00565b5b8060405250919050565b600067ffffffffffffffff821115610ad957610ad8610d00565b5b601f19601f8301169050602081019050919050565b6000819050602082019050919050565b600081519050919050565b600081519050919050565b6000602082019050919050565b600082825260208201905092915050565b600082825260208201905092915050565b600082825260208201905092915050565b6000610b5f82610bee565b9150610b6a83610bee565b9250827fffffffffffffffffffffffffffffffffffffffffffffffffffffffffffffffff03821115610b9f57610b9e610ca2565b5b828201905092915050565b6000610bb582610bce565b9050919050565b6000610bc782610bce565b9050919050565b600073ffffffffffffffffffffffffffffffffffffffff82169050919050565b6000819050919050565b6000610c0382610c0a565b9050919050565b6000610c1582610c1c565b9050919050565b6000610c2782610bce565b9050919050565b82818337600083830152505050565b60005b83811015610c5b578082015181840152602081019050610c40565b83811115610c6a576000848401525b50505050565b60006002820490506001821680610c8857607f821691505b60208210811415610c9c57610c9b610cd1565b5b50919050565b7f4e487b7100000000000000000000000000000000000000000000000000000000600052601160045260246000fd5b7f4e487b7100000000000000000000000000000000000000000000000000000000600052602260045260246000fd5b7f4e487b7100000000000000000000000000000000000000000000000000000000600052604160045260246000fd5b6000601f19601f8301169050919050565b610d4981610bbc565b8114610d5457600080fd5b50565b610d6081610bee565b8114610d6b57600080fd5b5056fea2646970667358221220906c617fa5514d30650a4191ec34e26d37e2ae26225d6ffbee0bbe46a624685c64736f6c63430008000033",
  "linkReferences": {},
  "deployedLinkReferences": {}
}