{
  "_format": "hh-sol-artifact-1",
  "contractName": "Transactions",
  "sourceName": "contracts/Transacions.sol",
  "abi": [
    {
      "anonymous": false,
      "inputs": [
        {
          "indexed": false,
          "internalType": "address",
          "name": "from",
          "type": "address"
        },
        {
          "indexed": false,
          "internalType": "string",
          "name": "message",
          "type": "string"
        },
        {
          "indexed": false,
          "internalType": "uint256",
          "name": "timestamp",
          "type": "uint256"
        },
        {
          "indexed": false,
          "internalType": "string",
          "name": "keyword",
          "type": "string"
        },
        {
          "indexed": false,
          "internalType": "string",
          "name": "vote",
          "type": "string"
        }
      ],
      "name": "Transfer",
      "type": "event"
    },
    {
      "inputs": [
        {
          "internalType": "string",
          "name": "message",
          "type": "string"
        },
        {
          "internalType": "string",
          "name": "keyword",
          "type": "string"
        },
        {
          "internalType": "string",
          "name": "vote",
          "type": "string"
        }
      ],
      "name": "addToChain",
      "outputs": [],
      "stateMutability": "nonpayable",
      "type": "function"
    },
    {
      "inputs": [],
      "name": "getAllTransactions",
      "outputs": [
        {
          "components": [
            {
              "internalType": "address",
              "name": "sender",
              "type": "address"
            },
            {
              "internalType": "string",
              "name": "message",
              "type": "string"
            },
            {
              "internalType": "uint256",
              "name": "timestamp",
              "type": "uint256"
            },
            {
              "internalType": "string",
              "name": "keyword",
              "type": "string"
            },
            {
              "internalType": "string",
              "name": "vote",
              "type": "string"
            }
          ],
          "internalType": "struct Transactions.TransferStruct[]",
          "name": "",
          "type": "tuple[]"
        }
      ],
      "stateMutability": "view",
      "type": "function"
    },
    {
      "inputs": [],
      "name": "getTransactionCount",
      "outputs": [
        {
          "internalType": "uint256",
          "name": "",
          "type": "uint256"
        }
      ],
      "stateMutability": "view",
      "type": "function"
    },
    {
      "inputs": [],
      "name": "getVotes",
      "outputs": [
        {
          "internalType": "uint256[2]",
          "name": "",
          "type": "uint256[2]"
        }
      ],
      "stateMutability": "view",
      "type": "function"
    }
  ],
  "bytecode": "0x608060405234801561001057600080fd5b50610cda806100206000396000f3fe608060405234801561001057600080fd5b506004361061004c5760003560e01c80630dc960151461005157806327506f531461006f5780632e7700f01461008d578063f0aa53f0146100ab575b600080fd5b6100596100c7565b60405161006691906109d6565b60405180910390f35b6100776100ed565b60405161008491906109b4565b60405180910390f35b610095610362565b6040516100a291906109f1565b60405180910390f35b6100c560048036038101906100c0919061068b565b61036b565b005b6100cf61055e565b60405180604001604052806001548152602001600254815250905090565b60606003805480602002602001604051908101604052809291908181526020016000905b8282101561035957838290600052602060002090600502016040518060a00160405290816000820160009054906101000a900473ffffffffffffffffffffffffffffffffffffffff1673ffffffffffffffffffffffffffffffffffffffff1673ffffffffffffffffffffffffffffffffffffffff16815260200160018201805461019a90610bd4565b80601f01602080910402602001604051908101604052809291908181526020018280546101c690610bd4565b80156102135780601f106101e857610100808354040283529160200191610213565b820191906000526020600020905b8154815290600101906020018083116101f657829003601f168201915b505050505081526020016002820154815260200160038201805461023690610bd4565b80601f016020809104026020016040519081016040528092919081815260200182805461026290610bd4565b80156102af5780601f10610284576101008083540402835291602001916102af565b820191906000526020600020905b81548152906001019060200180831161029257829003601f168201915b505050505081526020016004820180546102c890610bd4565b80601f01602080910402602001604051908101604052809291908181526020018280546102f490610bd4565b80156103415780601f1061031657610100808354040283529160200191610341565b820191906000526020600020905b81548152906001019060200180831161032457829003601f168201915b50505050508152505081526020019060010190610111565b50505050905090565b60008054905090565b6040518060400160405280600181526020017f410000000000000000000000000000000000000000000000000000000000000081525080519060200120818051906020012014156103d45760018060008282546103c89190610b00565b925050819055506103ef565b6001600260008282546103e79190610b00565b925050819055505b60016000808282546104019190610b00565b9250508190555060036040518060a001604052803373ffffffffffffffffffffffffffffffffffffffff16815260200185815260200142815260200184815260200183815250908060018154018082558091505060019003906000526020600020906005020160009091909190915060008201518160000160006101000a81548173ffffffffffffffffffffffffffffffffffffffff021916908373ffffffffffffffffffffffffffffffffffffffff16021790555060208201518160010190805190602001906104d3929190610580565b506040820151816002015560608201518160030190805190602001906104fa929190610580565b506080820151816004019080519060200190610517929190610580565b5050507f054407bbf4b83cd9f44dee12d804cc132c4b4ebcdf325b4419235d59580eb4de338442858560405161055195949392919061094c565b60405180910390a1505050565b6040518060400160405280600290602082028036833780820191505090505090565b82805461058c90610bd4565b90600052602060002090601f0160209004810192826105ae57600085556105f5565b82601f106105c757805160ff19168380011785556105f5565b828001600101855582156105f5579182015b828111156105f45782518255916020019190600101906105d9565b5b5090506106029190610606565b5090565b5b8082111561061f576000816000905550600101610607565b5090565b600061063661063184610a3d565b610a0c565b90508281526020810184848401111561064e57600080fd5b610659848285610b92565b509392505050565b600082601f83011261067257600080fd5b8135610682848260208601610623565b91505092915050565b6000806000606084860312156106a057600080fd5b600084013567ffffffffffffffff8111156106ba57600080fd5b6106c686828701610661565b935050602084013567ffffffffffffffff8111156106e357600080fd5b6106ef86828701610661565b925050604084013567ffffffffffffffff81111561070c57600080fd5b61071886828701610661565b9150509250925092565b600061072e83836108aa565b905092915050565b6000610742838361092e565b60208301905092915050565b61075781610b56565b82525050565b61076681610b56565b82525050565b600061077782610a87565b6107818185610ac2565b93508360208202850161079385610a6d565b8060005b858110156107cf57848403895281516107b08582610722565b94506107bb83610aa8565b925060208a01995050600181019050610797565b50829750879550505050505092915050565b6107ea81610a92565b6107f48184610ad3565b92506107ff82610a7d565b8060005b838110156108305781516108178782610736565b965061082283610ab5565b925050600181019050610803565b505050505050565b600061084382610a9d565b61084d8185610ade565b935061085d818560208601610ba1565b61086681610c93565b840191505092915050565b600061087c82610a9d565b6108868185610aef565b9350610896818560208601610ba1565b61089f81610c93565b840191505092915050565b600060a0830160008301516108c2600086018261074e565b50602083015184820360208601526108da8282610838565b91505060408301516108ef604086018261092e565b50606083015184820360608601526109078282610838565b915050608083015184820360808601526109218282610838565b9150508091505092915050565b61093781610b88565b82525050565b61094681610b88565b82525050565b600060a082019050610961600083018861075d565b81810360208301526109738187610871565b9050610982604083018661093d565b81810360608301526109948185610871565b905081810360808301526109a88184610871565b90509695505050505050565b600060208201905081810360008301526109ce818461076c565b905092915050565b60006040820190506109eb60008301846107e1565b92915050565b6000602082019050610a06600083018461093d565b92915050565b6000604051905081810181811067ffffffffffffffff82111715610a3357610a32610c64565b5b8060405250919050565b600067ffffffffffffffff821115610a5857610a57610c64565b5b601f19601f8301169050602081019050919050565b6000819050602082019050919050565b6000819050919050565b600081519050919050565b600060029050919050565b600081519050919050565b6000602082019050919050565b6000602082019050919050565b600082825260208201905092915050565b600081905092915050565b600082825260208201905092915050565b600082825260208201905092915050565b6000610b0b82610b88565b9150610b1683610b88565b9250827fffffffffffffffffffffffffffffffffffffffffffffffffffffffffffffffff03821115610b4b57610b4a610c06565b5b828201905092915050565b6000610b6182610b68565b9050919050565b600073ffffffffffffffffffffffffffffffffffffffff82169050919050565b6000819050919050565b82818337600083830152505050565b60005b83811015610bbf578082015181840152602081019050610ba4565b83811115610bce576000848401525b50505050565b60006002820490506001821680610bec57607f821691505b60208210811415610c0057610bff610c35565b5b50919050565b7f4e487b7100000000000000000000000000000000000000000000000000000000600052601160045260246000fd5b7f4e487b7100000000000000000000000000000000000000000000000000000000600052602260045260246000fd5b7f4e487b7100000000000000000000000000000000000000000000000000000000600052604160045260246000fd5b6000601f19601f830116905091905056fea26469706673582212203fedc34de378305ce67615f62021db89e7d25e82dc70bee94dd08a60731fd62964736f6c63430008000033",
  "linkReferences": {},
  "deployedLinkReferences": {}
}